:02000002D0002C
:1040000000400D0014C70D00000006000C00050163
:08401000040115050000000089
:10401800D4B30D0009480A49884208B505D0094AB1
:10402800824202D0121A06F00DFD0748074A002105
:10403800121A06F012FD014808BD00BF68DB032014
:1040480020C60D0034DC032034DC0320F0E7032015
:1040580070B505F085FC074C074BE41AA408002549
:104068001E46A54204D056F8253098470135F8E792
:1040780070BD00BF20C60D0068C50D0001F0E8B88E
:1040880008B500F061FCBDE8084005F037BC03F056
:10409800C3BE03F0C9BE03F0C7BE000008B5034A9B
:1040A80000210C2003F0DCFDFEE700BFF9780D00CD
:1040B8000078B0FA80F04009704701230370704718
:1040C80070470000034B01221A60034B00221A605C
:1040D800704700BF1CE30320C8DD032003681847AE
:1040E800012A02D0022A02D004E0016002E00B6833
:1040F80000B1036000207047704710B501230374B6
:104108008368044613B1C068984707E0006828B17F
:1041180083680BB905F03DFDC368984701236374B4
:104128000020BDE8104003F0D3BB000010B5064CDA
:10413800204604F067FE05F05FFB2368034A01216F
:10414800BDE8104004F02DBDB8DD03204BB40D00D0
:1041580010B5044B044640F81C3B03F0D5F8204644
:1041680010BD00BF88BF0D0010B5034B03600446A7
:1041780002F034FB204610BDF0B30D0010B5044624
:10418800FFF7F2FF204640F24C5105F0E8FC2046CC
:1041980010BD10B58368044613B103220146984741
:1041A800204610BD38B5044670B1056835B12846BB
:1041B800FFF7EFFF1021284605F0D1FC2046142117
:1041C800BDE8384005F0CBBC38BD10B503680446DF
:1041D800BBB1586803F04CFB78B923685A7C12B914
:1041E800586803F055FB2368586803F059FB2068AA
:1041F8000023236028B1FFF7D5FF206808B1FFF737
:10420800D1FF204610BD00002DE9FF4106460F46AC
:1042180014202A491546984605F0ACFC044630B1EE
:1042280000230374036043608360C3604374346095
:10423800002C39D02149102005F09CFC0346B0B170
:104248000022826095E8030002AA82E8030093E84E
:10425800030085E8030092E8030083E803009968F7
:10426800AA68A9609A60EA68D968E960DA6025688E
:10427800236035B12846FFF78CFF1021284605F04A
:104288006EFC306803687BB10A9B42468DE80900E2
:1042980039460B4B043003F0E3FA28B933681B7C2A
:1042A80043B903F0EDFAF9E730680023336008B149
:1042B800FFF778FF304604B0BDE8F08164C30D0015
:1042C80003410D0008B503F023FB034B1860BDE85C
:1042D800084003F021BD00BFE8E6032003682BB1C6
:1042E8004268934202D2184606F09EBA00207047F0
:1042F80038B50568044645B143689D4205D228464D
:1043080006F009FC013005442560204638BDF7B5A4
:1043180091E828001D448DE82800044616466F469B
:10432800009BAB420AD226B997E8030084E8030051
:1043380007E03846FFF7DCFF013EF1E70023236082
:104348006360204603B0F0BDF8B504460F464668E2
:1043580021B90368721C42609955F8BD084606F0F9
:10436800DAFBA368451CAA199A4208D820682A468D
:104378003946304406F066FB63681D446560F8BD45
:1043880070B504464068A6682568054A0B46311A88
:10439800284403F071FD636801301844606070BD03
:1043A80058B40D0070B504464068A6682568054AEB
:1043B8000B46311A284403F05FFD63680130184446
:1043C800606070BD5BB40D0038B5054608460C4604
:1043D80006F0A1FB214602462846BDE8384002F017
:1043E8002EBA000070B58CB00D46064626496846C0
:1043F800144604F0B5FC284605F0C2F8001B002856
:10440800284604DA05F0BCF8021B18320DE005F066
:10441800B7F8001B1828284604DD05F0B1F8021B80
:10442800183A02E005F0ACF8021B08A8174904F096
:104438004FFD08A9684604F0DDFC08A804F049FC13
:10444800284605F0A5F81149024604A804F040FDE5
:10445800694608A804F0C3FC0D4908A804F013FD38
:1044680004A904F004FD0146304604F0B8FC08A88D
:1044780004F02FFC04A804F02CFC684604F029FC86
:1044880030460CB070BD00BFD8C00D005FB40D0041
:1044980064B40D00542809D8A0EB8001013900EB61
:1044A80040000022C9B2C0B203F07DB9A9280BD8D8
:1044B8005538C0B200EB4002A0EB80000138D2B200
:1044C8000021C0B203F06FB95630C1B2A1EB81022E
:1044D800013A01EB4101D2B2C9B2002003F063B93D
:1044E80070B50646002500240E4803F061F98442A1
:1044F8000BD26019C0B2FFF7CDFF21460246013446
:10450800084803F005F9A4B2EEE70648013502F0C1
:104518005DFFADB2304603F0D7FCB5F5807FE2D140
:1045280070BD00BF30DD032010B50868074C06F0E9
:104538007BF94FF47A735843206005F05DF92168E0
:104548000A22BDE8104004F065BA00BF28DD032048
:1045580038B50C4605F050F90546206806F064F9B0
:104568000A220146284604F055FA206806F05CF94C
:10457800034B012816BF002218601A6038BD00BF1F
:10458800C8DD032038B50C4605F036F90546206825
:1045980006F04AF90A220146284604F03BFA206848
:1045A80006F042F9034B012816BF002218601A6072
:1045B80038BD00BF30E3032008B5086806F034F9B9
:1045C800014B186008BD00BF6CDB032013B5002247
:1045D80068460C46FFF79BFE6846FFF77FFE0C4BCC
:1045E8002146186001226846FFF791FE6846FFF7EA
:1045F80075FE084B0222186021466846FFF787FEC1
:104608006846FFF76BFE044B186002B010BD00BF90
:1046180070DB032068DB032074DB032008B508681F
:1046280006F002F901380D2847D8DFE800F0070B3B
:104638000F13171B1F24292E33383D421F4B072207
:104648001A6008BD1D4B06221A6008BD1B4B0522C7
:104658001A6008BD194B04221A6008BD174B0322C3
:104668001A6008BD154B00221A6008BD134B4FF0A5
:10467800FF321A6008BD114B6FF001021A6008BDC5
:104688000E4B6FF002021A6008BD0C4B6FF003026C
:104698001A6008BD094B6FF007021A6008BD074B86
:1046A8006FF008021A6008BD044B6FF009021A6027
:1046B80008BD024B6FF00B021A6008BD78DB0320BF
:1046C800F8B59548954D02F0BBFC954B1E68012E38
:1046D8005AD1944C206805F00BFD8DA3D3E9002333
:1046E80005F0A8FB06F050F82B68206001333C2B3E
:1046F8002B6032D18C4F8D483B6801333B600023DF
:104708002360002421462C6002F0E2FC2246314658
:10471800864802F032F80A223968844804F078F9A9
:10472800834802F053FE4FF4FA7003F0CDFB2146A4
:104738007E4802F0CDFC224621467C4802F01DF856
:104748007C497A4804F0F2F8794802F03FFE4FF4C9
:10475800FA70BDE8F84003F0B7BB0021734802F0D7
:10476800B7FC31460022714802F007F829686F4803
:104778000A2204F04DF96E4802F028FE4FF47A70D0
:10478800BDE8F84003F0A0BB2B68674F6A4C1BB923
:104798003E68002E00F092800021644802F098FCE8
:1047A80000220121614801F0E8FF0A2239685F48C8
:1047B80004F02EF95E4802F009FE4FF4FA7003F097
:1047C80083FB5A4801F0E1FF2D262060524802F091
:1047D80037FC0021554802F07BFC0022B4F9001098
:1047E800524801F0CAFF5549504804F09FF8236821
:1047F800013B236024330DDA4C4801F0C6FF4E4BD1
:10480800FF2118600022502002F06EFD0146474843
:1048180001F0B6FF464802F0D9FD322003F054FB00
:10482800013ED3D13146414802F052FC32460121C3
:104838003E4801F0A2FF0A2229683C4804F0E8F843
:104848003B4802F0C3FD4FF4FA7003F03DFB3748D4
:1048580001F09BFF2D2620602F4802F0F1FB00217C
:10486800324802F035FC0022B4F900102F4801F05C
:1048780084FF33492D4804F059F82368013B23602D
:1048880024330DDA294801F080FF2B4BFF211860F3
:104898000022502002F028FD0146244801F070FF54
:1048A800234802F093FD322003F00EFB013ED3D1E2
:1048B8001C4B2E6000223E601A60F8BD31461B4832
:1048C80002F006FC3246B4F90010184801F055FF12
:1048D8001C49164804F031F82368013B236024334F
:1048E8000CDA124801F051FFFF21206032465020B7
:1048F80002F0FAFC01460D4801F042FF0C4802F0B4
:1049080065FD6420BDE8F84003F0DEBAAFF300802F
:104918007B14AE47E17A843F88DC0320CCDD03209A
:1049280030E303206CDC032038DC0320DCDC0320CC
:10493800F8DC032066B40D00D4DC032068B40D0055
:1049480070B40D0078B40D004FF0FF3003F0BCBA1E
:1049580038B5046805467CB16368013B63605BB9A0
:10496800236820469B689847A368013BA3601BB94E
:1049780023682046DB689847284638BD30B51E4D69
:1049880095B02B781D498DF8003000223C2304A8EF
:1049980003F0F4FB05A8FFF7DBFF4FF47A6003F0A0
:1049A80093FA174C174B18491A6823788DF800307A
:1049B80004A83C2303F0E2FB05A8FFF7C9FF4FF466
:1049C8007A6003F081FA114B114A1B681268114989
:1049D80004A803F039FA23788DF8003004AA3C23A0
:1049E8000D4902A803F0CAFB03A8FFF7B1FF42F282
:1049F800107003F069FAC4E758DD032082B40D0093
:104A08004CDC0320B8DD03206AB50D0078DC0320F8
:104A180020E3032095B40D007EB50D0010B5044BBE
:104A2800044640F8183BFFF793FF204610BD00BF2F
:104A38004CC20D0073B50E460446154601F030FF12
:104A480001AB01463246204602F032F820B12A4630
:104A58000199204602F00EF802B070BD73B51548F2
:104A6800FFF7B2FC134802F01CFAE0B1124C134DE8
:104A78001349144E0F482246FFF7DCFF2A46124915
:104A88000C48FFF7D7FF324610490A48FFF7D2FF14
:104A980004F0B2FE336801932B6800930C4A236834
:104AA800012104F07EF8034802B0BDE8704001F02F
:104AB800E4BE00BFD0DD032054E30320A8DD0320BB
:104AC8009BB40D005CDD0320A8B40D00B6B40D0046
:104AD800C1B40D0037B51148FFF776FC0F4802F056
:104AE800E0F9A0B10E4C0F4D0F490C482246FFF7D4
:104AF800A1FF2A460D490948FFF79CFF04F07CFEF8
:104B08002B6800930A4A2368012104F04AF80348F5
:104B180003B0BDE8304001F0B0BE00BFD0DD0320D7
:104B280020E3032078DC032000B50D0009B50D0053
:104B380013B50D0008B500234377006804F00EFC98
:104B4800BDE8084002F08EBA2DE9F0418E188EB00B
:104B5800B14280460D4617460591069680F01E81A3
:104B68000B88ADF8123005A8FFF7C2FB03689E4218
:104B780040F2148105980378412B13D1013005F0D8
:104B880053FE052801DDFF2410E00598013005F0EB
:104B98004BFE0028F7DB0598013005F045FE0E3086
:104BA800C4B203E005A8FFF799FBC4B2BDF8123000
:104BB80047F27622934200F0B5800DD847F2612281
:104BC80093427BD047F26422934250D046F670520B
:104BD800934240F0D28034E047F26472934258D056
:104BE80047F27672934200F0AE8047F261729342C8
:104BF80040F0C38083E00378412B33D1013005F0C6
:104C080013FE052821DDFF2405A8FFF771FB059D8C
:104C18006449284605F052FF0146002800F0BA8092
:104C28006149284605F04AFF002800F0B2805F4934
:104C3800284605F043FF002800F0AB8005A8FFF7E1
:104C480057FB05988642D6D8A8E00598013005F0AC
:104C5800EBFD0028D7DB0598013005F0E5FD0E30A7
:104C6800C4B2D1E705A8FFF739FBC4B2CCE70AAB59
:104C7800079307A8102300254D4909930895FFF7C6
:104C880063FB07A82146FFF77BFB204604F0D0FE14
:104C980025E005A8FFF72CFB03689E427ED9A4B245
:104CA8000121204604F09AFE05A8FFF717FB011C16
:104CB80018BF0121204604F0A2FE6FE00AAB07935B
:104CC8003C49102307A8002509930895FFF73CFBEA
:104CD80007A82146FFF754FB204604F0BCFE014616
:104CE80007A8FFF75FFB089B0295013B009301951E
:104CF800079B2A461421404600F0A6FB4EE005A873
:104D0800FFF7F6FA03689E4248D9A4B2012120466B
:104D180004F064FE05A8FFF7E1FA0146204604F016
:104D2800B1FE3BE00EAD204605F8104D02F09CF9AF
:104D38000346284623B1204A934201D098472DE0E4
:104D480002F08EF92AE005A8FFF7D2FA059B0A932C
:104D58005D1B7D1B20460B950C958DF81C4002F0C1
:104D68008DF903460AA907A823B1144A934201D032
:104D7800984713E002F075F910E000230221009132
:104D8800B8F81A20029301931946404600F05CFBDC
:104D980004E00121204604F021FE4FE70EB0BDE8F3
:104DA800F08100BF21B50D0024B50D0028B50D0018
:104DB8002CB50D002FB50D0069700D006B700D003E
:104DC8002DE9F0418EB004AF0546052207F10C012C
:104DD800006803F069FF002800F02381052801D04E
:104DE800002023E1B7F80D20B7F80F40130A43EA73
:104DF8000222230A43EA042492B2A4B2A7F80D209F
:104E0800A7F80F40002AEBD03B7BF3B902F024F956
:104E18006B7FE860B7F80F209BB9B7F80D10012930
:104E28000FD1042A01D0C82ADAD1012468616C772D
:104E3800284600F0C3FBFFF745FA02F013F92046B5
:104E4800F4E0501F18BF0120F0E0B4F5806F04D9DA
:104E58002846FFF76FFE0120E8E004F1080323F07D
:104E68000703E846ADEB030D04AE22463146286839
:104E780003F01AFF84424FF0000440F0CD80B7F8E9
:104E88000F30F45402F0E8F83B7BE860112B7AD03D
:104E980006D8062B25D00F2B67D0022B09D0B6E0F9
:104EA800292B2BD0372B00F0B980142B40F0AF8082
:104EB8005BE06B7F43B901236B77284600F07EFBEC
:104EC800FFF700FA02F0CEF80023C821B7F80D204A
:104ED8000091284602930193194600F0B5FA012083
:104EE8009DE0C823B7F80D2000932846029401944A
:104EF8002346214600F0A8FA012090E0AB681BB9D0
:104F0800202002F089FFA860B7F80F40FE61344402
:104F1800A6423C6201D3002081E020223146A868E5
:104F280005F016FE07F11C00FFF7E2F90368A3423B
:104F380007D2F86918B13B6A984274D3002084B24A
:104F480000E05024286804F009FA2B68AA685A631C
:104F58001C8700236B7702F07FF8A0F59C50083877
:104F68002861E8606861012059E0FB68B7F80F2004
:104F7800C3F30F236B8328463146FFF7E5FD002373
:104F88006B8301204BE0B7F80F303C7133449E42ED
:104F98007E61BB6142D23068B86007F11400FFF748
:104FA800A7F97A69B7F80F30FA61961B9E1B214A58
:104FB800BB683E6293427E621DD00BD802F1FD327F
:104FC80002F10222934229D107F11C01381D02F097
:104FD80048F823E0184A934213D002F19F6202F581
:104FE800003202F58072934218D107F11C01381D76
:104FF80002F037F812E007F11C01381D02F031F811
:105008000CE007F11C01381D02F02BF806E02846D9
:10501800FFF790FD012002E0204600E00120C54690
:1050280004E0012002E005F003FC88E72837BD46CC
:10503800BDE8F0817274630061636F6E2DE9F04121
:1050480004468AB00D46FFF73DF9637F022B00F056
:10505800A080237F628B0133DBB22377002A41D102
:10506800022B3FD8206803F08AFF40B1002D40F0A2
:105078009280206804F08AF9002800F38C8001F0FF
:10508800EBFF0646206803F07AFF677F012F05468D
:105098002AD120B966612046FFF74CFD75E0E36828
:1050A80044F63822F31A934204D92046FFF742FD0A
:1050B80000256AE042F21072934203D82369F31A7A
:1050C80093420FD9636940F6B832F31A934209D96B
:1050D80000230293019300931A460621204600F00C
:1050E800B3F96661012550E0002FFBD1626950B128
:1050F800B61A40F6B8339E42F4D9206804F02EF967
:105108003D46677741E0B21A41F288339A42E9D9BD
:10511800206804F023F9D4F800E0DEF834C0BEF8C3
:105128003880BCF1000F09D02B46424661467046D4
:1051380003F052FF421E5542554111E01E4B0493A5
:105148000EF120070FCF05AD0FC53B682B70424607
:10515800634604A9704604F084F8431E5D425D412D
:105168000DB9666111E0676801262683384605F0A7
:10517800D2FC00238DE80900029332463B46022107
:10518800204600F061F923696361237F013B23779F
:105198000EE000250CE02046FFF712FE0546002829
:1051A8007FF467AF206804F0D9F801F05BFFECE703
:1051B80028460AB0BDE8F081B8C00D002DE9F041DD
:1051C80014468CB00546043440F6B8300F4698466D
:1051D80001F040FF0FCC01AE0FC623686F6033703B
:1051E80001F03AFFA0F59C50083801AF2861E8604B
:1051F80068610FCF07AE0FC63B68337007AF0FCF9C
:105208002C684FF0000EC4F834E0A4F8388020343D
:105218000FC43368237042F227367446286804F0B6
:105228009DF86C7701F018FF07466B7F012B09D0BA
:1052380001F012FFC01BB04204D800212846FFF736
:10524800FDFEF2E76B7F012BE8D10CB0BDE8F081E1
:1052580070B58AB004F0D0FA4FF4165104F0C0FAD1
:105268000C215F4800F077FF00B9FEE74FF47A7031
:1052780002F02AFE01215A485A4E5B4D00F02EFFDB
:105288000121132004F0AAFB0121122004F0A6FB3F
:1052980004F0B2FA554903F060FB554802F05FF894
:1052A8000021544801F06FFA1E21514802F082FA99
:1052B8000022FF21502002F017F801464D4801F066
:1052C8005FFA4D4802F04BF800214C4801F05BFAB8
:1052D8001E21494802F06EFA0022FF21502002F0F8
:1052E80003F80146454801F04BFA4549454801F0A5
:1052F80085FE7C23009363229623A72104A800241B
:1053080003F0BEF941F6907304AA3F493F48FFF7FE
:1053180055FF012322463E49019400943D4802F07E
:1053280013FD234622463C49019400943B4802F071
:105338000BFD234622463A4901940094394802F06D
:1053480003FD394B04934FF44063009304AA0223EE
:105358003649079603A80695FEF756FF344B039A7D
:10536800186803941A6008B1FEF71CFF03A8FEF73B
:105378002CFF04A8FEF70DFF2E4B04934FF4406357
:10538800009304AA02232C49079603A80695FEF762
:105398003BFF0023039A0393284B18681A6008B14F
:1053A800FEF700FF03A8FEF710FF04A8FEF7F1FEC2
:1053B80001210E2004F012FB0121032004F00EFB52
:1053C8001F4801F0CCFF1E4802F000F843F6982170
:1053D8001C4801F019FE1B4801F032FE0AB070BDEE
:1053E80044DD0320E5400D00E9400D0032B50D0015
:1053F800ACDC032090DC0320F8DC0320DCDC032099
:10540800CD400D0040DC03203BB50D0034E3032004
:1054180035410D0082B40D00DD4A0D005CB50D006C
:10542800654A0D0070B50D0085490D0087B50D0062
:1054380050DC032071580D008CB50D00D8DC03201A
:1054480030DD032088DC03202DE9F04F83B000AF66
:10545800044600683D6B894616469B46EA4603F0BB
:105468008EFD002860D019F0FD0F00F09E80B9F184
:10547800060F00F09A80637F012B55D116B9668B11
:10548800002E53D0A9F10C03082B57D97A6BBBF126
:10549800000F14BFA8464FF00008002ABA6B08F1A5
:1054A800050314BF90464FF00008984408F107031D
:1054B80023F00703AA18ADEB030DC2F3072376BA4E
:1054C80043EA0223C7F804D08DF80090ADF80160D4
:1054D800ADF80330BBF1000F4FD0002D4DD02A4658
:1054E80059460DF1050005F0ADFA681D7B6B002BE0
:1054F80045D1002545454ED2C5EB08027B6820689A
:10550800B2F5806F28BF4FF48062591903F021FD6E
:105518000646002001F09EFD002E3AD1206803F0D7
:105528001DFF667701F09EFDD54642E0238B0133CF
:105538009BB203B901232383268BA3E7E36822697F
:10554800934238BF134603F1420801F085FDC0EBD2
:10555800080000280ADB00212046FFF76FFD01F054
:105568007BFDC0EB08000028F5DA8FE7217F0029D2
:105578008CD12046FFF762FD88E70520B6E7BB6BB4
:10558800002BB6D01A467B68796B184405F05AFA96
:10559800AFE73544AEE703D02046FFF7CBFAC3E7C1
:1055A80001F05AFD2061D54603E0002E7FF46EAF6E
:1055B80065E70C37BD46BDE8F08F00001FB5002237
:1055C8004923009302920192034B1121FFF73CFFFC
:1055D80005B05DF804FB00BF00B40D00F0B5ADF2F6
:1055E800244D08AB002405460F46059305A84FF443
:1055F80080630E49079316460694FEF7A5FE3946C2
:1056080005A8FEF7BDFE314605A8FEF7B9FE069BC4
:105618000294013B00930194059B224614212846DD
:10562800FFF712FF0DF2244DF0BD00BF93B50D003A
:1056380030B5ADF2244D08AB00240546059305A806
:105648004FF4806307930694FEF77EFE069B029450
:10565800013B00930194059B22460E212846FFF743
:10566800F3FE0DF2244D30BD70B5734801F0E8FC2F
:10567800724B196801291D4670D100227048714C7F
:10568800FFF7ACFF70496E48FFF7D2FF6F4801F093
:105698007CF83626206000216C4801F019FD0022B4
:1056A800B4F90010694801F068F84FF4FA7240F64E
:1056B8004951032003F0A6FF4FF4FA7240F6E9615E
:1056C8000E2003F09FFF4FF4FA7240F6E9610320C1
:1056D80003F098FF4FF4FA7240F649510E2003F098
:1056E80091FF5B49594803F028F92368013B23607F
:1056F80024330DDA554801F048F8524BFF21186061
:105708000022502001F0F0FD0146504801F038F821
:105718004FF4FA7240F64951032003F073FF4FF437
:10572800FA7240F6E9610E2003F06CFF4FF4FA724A
:1057380040F6E961032003F065FF4FF4FA7240F682
:1057480049510E2003F05EFF424801F03FFE6420FD
:1057580002F0BAFB013E9ED12E6070BD3E4B1B6825
:10576800012B3ED13D4B1C68002C63DD324801F013
:1057780067FC3B4801F036FC4FF47A7504F03CF8BE
:1057880094FBF5F50A22294603F044F900212F4835
:1057980001F09EFC002202212C4800F0EEFF294671
:1057A800284D2A480A2203F033F92B68013B2B6065
:1057B80024330CDA254800F0E8FFFF212860002296
:1057C800502001F091FD0146204800F0D9FF214802
:1057D80001F0FCFD4FF47A7002F076FBA4F57A74C0
:1057E800C2E7184C1948002101F072FC0022B4F9F4
:1057F8000010164800F0C1FF1A49144803F09DF83C
:105808002368013B236024330CDA104800F0BDFF05
:10581800FF2120600022502001F066FD01460B4860
:1058280000F0AEFF0B4801F0D1FD6420BDE87040E8
:1058380002F04ABB70BD00BF88DC03201CE30320D4
:1058480034E3032020DD032096B50D00DCDC0320C3
:10585800A3B50D00F8DC0320C8DD032028DD0320F4
:1058680040DC0320B0B50D002DE9F04F99B0B848E1
:10587800B84CB94FDFF83483DFF83493B74DB84EDE
:10588800DFF830B301F0DCFB0021B648FFF7D6FBA8
:105898002178B54801F08EFF2178B44801F08AFFDD
:1058A8003A7898F8001099F8000001F01DFD0146BB
:1058B800AF4800F065FF3A7898F8001099F80000B2
:1058C80001F012FD0146AB4800F05AFF082206A974
:1058D800A94800F053FD0FA91A22A74800F04EFD71
:1058E8000B9B2B600C9B3360A44B0D9A1A60149A87
:1058F800CBF80020019303F07FFF8246286804F06C
:10590800F7FB41EC100B0221504603F03FF903F07E
:1059180073FF8246306804F0EBFB41EC100B022168
:10592800504603F033F903F067FF019B824618687D
:1059380004F0DEFB41EC100B0221504603F026F97F
:1059480003F05AFF8246DBF8000004F0D1FB41EC7B
:10595800100B0221504603F019F9DFF85CA2884ABF
:105968005146106801F05CFF864ADAF80010DFF84B
:105978004CA2126802A8FEF735FD02A9504603F0B2
:1059880039FA02A803F0A5F9019BD3ED007AF2EEEB
:10599800026AF4EEE67AF1EE10FA3EDD95ED006A61
:1059A800B0EE087AB4EEC76AF1EE10FA35D596ED86
:1059B800006AB4EEC76AF1EE10FA2ED56B48724D44
:1059C80001F01EFF694801F001FD01F0A1FF2B68FD
:1059D8008342BFF44CAF6D4C6548002101F078FB61
:1059E8000022B4F90010624800F0C7FEDAF800108F
:1059F8005F4802F09BFF2368013B2360243303DAEE
:105A08005B4800F0C2FE2060574801F0DFFC01F05F
:105A18007FFF00F59670286029E7BAEE027AF4EE67
:105A2800C77AF1EE10FA18D5D6ED005AB0EE086A2A
:105A3800F4EEC65AF1EE10FA0FD5D5ED005AF4EE91
:105A4800C65AF1EE10FA08D5474801F0D9FE464883
:105A580001F0BCFCFFF708FE09E796ED006AB4EE1A
:105A6800E66AF1EE10FA17DD95ED005AF0EE085AE5
:105A7800B4EEE55AF1EE10FA0ED5F4EEE57AF1EE51
:105A880010FA40F19F80384801F0BAFE364801F01C
:105A98009DFCFEF715FEEAE6B4EEC76AF1EE10FAD1
:105AA80040F1968095ED005AF0EE085AB4EEE55AAA
:105AB800F1EE10FA40F18C80F0EE085AF4EEE57A37
:105AC800F1EE10FA40F18480284801F099FE274849
:105AD80001F07CFC2E492F4803F0E7F90546002821
:105AE8007FF4C5AE294C0146214801F0F1FA2A4657
:105AF800B4F900101E4800F040FE264902A803F041
:105B08006EF9254902A803F0BEF9244903F0AFF95C
:105B1800234903F0B8F9234903F0A9F9224903F00E
:105B2800B2F90168124802F001FF02A803F0D1F8A7
:105B38002368013B2360E63303DA0D4800F025FEB5
:105B48002060094801F042FC642002F0BDF98EE6AD
:105B580088DC03206CDB032074DB032064DC032077
:105B680068DC032034E30320ACDC0320F8DC0320EA
:105B780090DC0320DCDC032044DD03202CDD032043
:105B880024DD032078DB03208CDC0320D4DC032015
:105B9800D8C00D0054E30320B6B50D00A8DD0320DE
:105BA800B9B50D005CDD0320C1B50D0068DB03202D
:105BB80070DB03203CDC032070DC032054DC032072
:105BC8000000B442B4EEC76AF1EE10FA3FF574AFC4
:105BD800D5ED005AF4EEE65AF1EE10FA7FF747AE2B
:105BE800F0EE086AF4EEE67AF1EE10FA7FF53FAED1
:105BF800B4EEE66AF1EE10FA7FF539AEDBED007A25
:105C08005FED116AF5EEC07AF1EE10FA20DDF4EEE0
:105C1800E67AF1EE10FA1BD5644801F0F1FD63480D
:105C280001F0D4FBC8221146104601F05DFB014685
:105C38005F4801F04DFA21785E4801F0BBFD5D48F0
:105C480001F0C4FB03F0D8FD5B4902F086FE0EE6C6
:105C5800F4EEE67AF1EE10FADFED586A2FDDF4EE95
:105C6800E67AF1EE10FA2AD5504801F0C9FD4F48FE
:105C780001F0ACFBFF221146104601F035FB01464E
:105C88004B4801F025FA21784A4801F093FD49482C
:105C980001F09CFB4FF4FA7002F016F90021454818
:105CA80001F088FD434801F091FB4FF4FA7002F0CF
:105CB8000BF903F0A1FD424902F04FFED7E5F4EEDF
:105CC800E67AF1EE10FADFED3F6A22DDF4EEE67ACD
:105CD800F1EE10FA1DD5374801F092FD354801F074
:105CE80075FB3A7898F8001099F8000001F0FCFA72
:105CF8000146354801F0ECF921782C4801F05AFDAD
:105D08002A4801F063FB03F077FD304902F025FED5
:105D1800ADE5F4EEE67AF1EE10FA18DDDFED2C6A67
:105D2800F4EEE67AF1EE10FA11D5224801F068FD9A
:105D3800204801F04BFB21781C4801F03BFD2178FD
:105D4800244801F037FD0120FEF7CAFB8FE5F4EE89
:105D5800C75AF1EE10FA7FF58AAD1F4C144800219E
:105D680001F0B6F90022B4F90010114800F005FD61
:105D78001A490F4802F0DAFD2368013B23602433F7
:105D88000CDA0B4800F001FDFF21206000225020B2
:105D980001F0AAFA0146064800F0F2FC054801F0B5
:105DA80015FB4FF4967002F08FF860E5F8DC0320DD
:105DB80090DC0320ACDC0320CFB50D000000344399
:105DC800C3B50D0000008743DCDC0320C9B50D0016
:105DD8000000B44330DD0320D4DC0320D5B50D002A
:105DE80010B51421044603F0BAFE204610BD10B5C4
:105DF8000446FEF7ADF92046442103F0B0FE2046E4
:105E080010BD00006F4B2DE9F34100256E4E1D704B
:105E18006E4B6F4CDFF8248201271F7001F090FD54
:105E2800304603F04FFB06F11C0002F0E5FB22466A
:105E3800684975633046358703F08CFE664B294602
:105E48001E605D609D60DD601D615D611D835D8319
:105E58001D775D77384601F02BFF604E6048614F33
:105E680005602246314603F075FE5F4831465F4EB5
:105E7800056022465E4D03F06DFE3146384602F05D
:105E88006FFF38465B4F2246294603F063FE3146D2
:105E9800384602F065FF3846574F2246294603F038
:105EA80059FE3146384602F05BFF3846534F2246CA
:105EB800294603F04FFE3146384602F051FF22468C
:105EC800294638464E4F03F045FE3223009307F12A
:105ED8002C0107F50B734FF40072384600F0D0FC24
:105EE800484B3B603846484F4849224603F032FE4B
:105EF8003146384602F034FF3846454F2246294697
:105F080003F028FE3146384602F02AFF3846414F52
:105F18002246294603F01EFE3146384602F020FF8D
:105F280022462946384603F015FE3B4B3B48196884
:105F38003B4D3C4E01F03CF803F0CAFD28220346D5
:105F48003721284600F09EF822463749284603F0B4
:105F580001FE022706238DE888000822132310215A
:105F6800304601F097F9314D22464146304603F05C
:105F7800F1FD0523009301971223082210212846DA
:105F880001F088F94146DFF8B8802246284603F038
:105F9800E1FD3B4612228021404601F005FA2246E7
:105FA8002349404603F0D6FD304600F0EEFB214B76
:105FB8001860284600F0E9FB1F4B186002B0BDE8E6
:105FC800F08100BF58DD03206CDD03204CDC03208A
:105FD80034DC0320254A0D0034E30320D3410D00AF
:105FE800D8DC032054DC032050DC0320D8C00D008B
:105FF800DB8C0D0054E30320A8DD03205CDD0320C7
:10600800D0DD0320F0B30D0020E3032071410D0023
:1060180078DC0320B8DD032028DD032040DC0320E2
:1060280044DD032090DC032001410D00DCDC03206B
:1060380011730D00D4DC032020DD032059410D002D
:1060480030DD032038B50C460546282200212046BD
:1060580004F003FD0B220949204604F079FD0023D2
:106068000122E372E260EA68636200232261A361AD
:106078000322E361024B6261236238BDD9B50D008A
:106088000AD7233C30B5034D0560C1604271836077
:1060980030BD00BFE8B50D0070B504460E46417925
:1060A8008068154602F05EFAA068036831469B686E
:1060B8009847A068036829469B689847A06802F03B
:1060C80059FA012070BD08B50A4601743D21FFF751
:1060D800E3FF1E20BDE8084001F0F6BE70B50D468E
:1060E80000210446067CFFF7EEFF192001F0ECFEC4
:1060F800002207212046FFF7CFFF0DB1802200E0E4
:106108002A463F212046FFF7C7FF0A2001F0DCFEA0
:1061180020463146FFF7D7FF1420BDE8704001F054
:10612800D3BE38B504460D464179806802F01AFAA4
:10613800A068036829469B689847A06802F01AFA85
:1061480001226179A06802F00AFAA06803685B6915
:106158009847C0B238BD38B5044680680D4602F08D
:10616800EFF900212046FFF7DCFFA02809D12046DF
:106178000021FFF7A8FF20223F212046FFF78CFFD0
:106188000BE04FF47A7001F09FFE00212046FFF7E4
:10619800C8FFA028EBD0002038BD00212046FFF71B
:1061A800C0FFA02803D00A2001F08EFEF5E73220B8
:1061B80001F08AFE00223E212046FFF76DFF0A20EB
:1061C80001F082FE002207212046FFF765FF00222A
:1061D8003F212046FFF760FF0A2001F075FE29469F
:1061E8002046FFF770FF142001F06EFE012038BD35
:1061F800F8B504460E464179806817461D4602F0F8
:10620800B1F9A068036831469B689847A06802F016
:10621800B1F92A466179A06802F0A1F9013D7E1E14
:106228003D44AE4206D0A06803685B69984706F80B
:10623800010FF6E70120F8BDF7B50D461746002116
:106248001822044604F009FC00230093ADF804303A
:10625800284606236A463946FFF7CAFF9DF80030EC
:106268009DF801009DF803609DF8055043EA002061
:106278009DF8023043EA06269DF80430142F43EABD
:10628800052500B236B22DB20AD003D8082F20D087
:106298000E2F04E0282F1CD02E2F1AD01A2F32D1FF
:1062A80003F014FF0022194B03F076FFC4E9000144
:1062B800304603F00BFF0022144B03F06DFFC4E9D6
:1062C8000201284603F002FF0022104B03F064FF8E
:1062D80017E003F0FBFE00220D4B04F087F8C4E939
:1062E8000001304603F0F2FE0022094B04F07EF86C
:1062F800C4E90201284603F0E9FE0022044B04F039
:1063080075F8C4E90401204603B0F0BD0000B03FB1
:106318000000594070B50C46242686B00546324622
:106328000021204604F099FB2660EB686360032394
:10633800A36001F0EDFA1A22206129466846FFF7AA
:106348007BFFDDE9000104F01FFA6061DDE902016D
:1063580004F01AFAA061DDE9040104F015FAE0611D
:10636800012006B070BD30B5034601F11802F1E80E
:1063780002459142E3E80245F9D130BDF0B50C463B
:1063880024278DB000210646154620463A4604F0DB
:1063980064FB2760F368636001F0BAFA1822206191
:1063A8000021684604F059FB282D01D10A2310E08A
:1063B800082D01D02E2D01D101230AE01A2D01D17B
:1063C800032306E0142D01D10B2302E00E2D19D171
:1063D8000223A3602A46314606A8FFF72DFF06A927
:1063E8006846FFF7C0FFDDE9000104F0CDF9606100
:1063F800DDE9020104F0C8F9A061DDE9040104F057
:10640800C3F9E06101200DB0F0BD01F099BA2DE9A2
:10641800F04F85B01E46BDF93830BDF83CA0154692
:106428009A1A002AB8BF52420092721A002AB8BFBC
:10643800524201920C46009A01998A42814605DD32
:1064480032461E46134622462C461546B44205DD02
:106458002A461D4613462246344616465A1B002A2B
:10646800B8BF5242C4EB06089D42B4BF01234FF0A7
:10647800FF331FFA88F8029303920FFA88F7022273
:1064880097FBF2F7B4421FDC019A009B9342D9F8BC
:106498000030C8BF2246D3F810B0C8BF29465346BB
:1064A800DCBF2A4621464846D847039BFF1ABBB2A1
:1064B8001FB2002F05DA029A08EB030715442DB224
:1064C8003FB2013424B2DDE705B0BDE8F08F2DE915
:1064D800F347BDF82C600768BDF928A0009604466C
:1064E800FF6991460D469846B847236800960AF119
:1064F800FF324A44DF6929464346204612B2B8476C
:10650800236800969F694A46534629462046B8475D
:1065180023680A9608F1FF3129449D694A46534683
:1065280009B22046AC4602B0BDE8F047604737B52F
:10653800013B13440468BDF8185001951BB2009341
:1065480064690B46A04703B030BD37B5BDF8185095
:1065580004688DE82400013B0B4464691BB2A04722
:1065680003B030BD2DE9F347BDF92880BDF82C9064
:10657800054617460C4601EB030A54450BDA2B680F
:10658800CDF800909E69214643463A462846013494
:10659800B04724B2F1E702B0BDE8F08713B5B0F90F
:1065A8000E200468019100920022B0F90C30646A50
:1065B8001146A04702B010BD7047000030B50181F8
:1065C8000024084D42818181C2814FF6FF7101226A
:1065D800446005604476048244820276C1828182E6
:1065E800827630BD04B60D002DE9F04F8FB0054618
:1065F8000691BDF860100791BDF864100891B0F9D4
:106608000C1006989DF8688081427CDDB5F90E1063
:10661800914278DD062111FB0800002873DD02EBAA
:10662800C80000286FDD03EB830396B20C9306F1D4
:1066380008039BB2099100240D93052C1CBF334B12
:106648000C9A059616BF1B194FF0000913F8029013
:1066580004961FFA88F30393039ABDF8183004FBD5
:10666800023213FA84F312B21BB20A9237460FFAB7
:1066780088FA0B9319F0010F11D0B8F1010F2B68AC
:1066880003D1D3F810B0079B14E0079A0192CDF814
:1066980000A0D3F824B0BDF91020534618E0079B9A
:1066A800089A934217D0B8F1010F2B6807D1D3F895
:1066B80010B013463AB20B992846D8470BE0089A0F
:1066C8000192CDF800A0BDF91420D3F824B05346A8
:1066D8000A992846D847049B039A13449BB204930B
:1066E800059B13449BB2013705930D9BBFB29F4294
:1066F8004FEA5909BED1099B013B013413F0FF034E
:1067080064B2099399D10FB0BDE8F08F34B60D008B
:1067180030B50A2985B004460B4604D1027E438A67
:1067280003EBC20323E00D2924D0057EB0F9122023
:10673800B0F910100295C58A0195858A0095FFF772
:1067480053FF227E238A91B201EB410003EB400301
:10675800A07E1BB2238268B1B4F90C006FF0050566
:1067680005FB0202934205DD638A03EBC1036382E2
:1067780000232382012005B030BD01824282704788
:10678800C1828182704781767047B0F90C007047EA
:1067980001F0D6B801F0D4B808B501F0D1F8014B32
:1067A800186008BD64E3032001F0CAB810B5054BB2
:1067B8000360037C04461BB9406808B101F034FB50
:1067C800204610BD38BB0D0010B50446FFF7EEFF9C
:1067D8002046142103F0C3F9204610BD10B5074B1D
:1067E8000360037C04461BB9406908B101F01CFB37
:1067F8002046FFF7DBFF204610BD00BF78BB0D0029
:1068080010B50446FFF7EAFF20462C2103F0A7F94C
:10681800204610BD38B5037C04460D460BB1002058
:1068280038BD406810B101F007FB02E0084601F0EE
:10683800F3FA0028F3D06060A560012038BD70B578
:1068480043680E4604461546C1687BB153188268F2
:1068580093420BD8E36860682A463146184404F02E
:10686800F1F8E3681D44E560012070BD2944204625
:10687800FFF7D0FF0028EDD170BD0023C36070473B
:1068880010B582600022C260012202744361034A8B
:10689800029B41600260C36110BD00BF78BB0D0060
:1068A80043698269934205D21A78012A0CBF1846B7
:1068B800002070470020704770B513689D68136802
:1068C80003F1100414608669B4420AD29B698C688B
:1068D800A34201DA9D42F2DAA342CCBF0020012094
:1068E80070BD002070BD2DE9F34702AD9A4601F155
:1068F80010030A9E45F8043D07460C4691464FF0A2
:106908000008019BBA699A421ED99968A268914207
:106918001ADAB0450BD1C9F800302A462146384664
:10692800FFF7CAFF18B1019BCAF800300DE02A46EC
:1069380021463846FFF7C0FF2A462146384608F167
:106948000108FFF7B9FFDCE7002002B0BDE8F087D7
:1069580038B5044600680D4610B102F07BFA07E02E
:10696800616829B1A368E268013B9A4238BF8D5437
:10697800E3680133E36038BD7F2870B50C4601D861
:10698800C1B219E0B0F5006F4FEAA01500F03F065C
:1069980003D265F03F01C9B209E0010B41F0E00103
:1069A8002046FFF7D5FF05F03F0141F08001204662
:1069B800FFF7CEFF46F080012046BDE87040FFF7A4
:1069C800C7BF00002DE9FF414D6880460F461646B7
:1069D8000024B868854246DAD8F80430CCB3595D4B
:1069E8006E2903EB05020FD005D862290AD0662963
:1069F8000BD10C2109E074290ED075290ED072290B
:106A080003D107E0082100E00A213046FFF7A0FF84
:106A1800002426E00D21F8E70921F6E72B1D98420E
:106A2800F6DD002302A812F8011F19540133042BC4
:106A3800F8D1002301AA0E498DF80C3001F00CFAA8
:106A48000128E5D13146BDF80400FFF795FF05356B
:106A5800DEE7595D5C2903D03046FFF779FF00E097
:106A680001240135B5E7012004B0BDE8F08100BF7D
:106A780044BB0D007FB50C4606460C49104615462A
:106A880002F0C0F9A3686168591A0131284602F07A
:106A98003EF900236A462146304600950193029349
:106AA8000393FFF78FFF04B070BD00BFD8C00D007F
:106AB8002DE9F04389B006460F4604A811499046CF
:106AC800994602F04DF9002500954B4603AA394630
:106AD8003046FFF708FF044668B104AA0399304618
:106AE800FFF7C8FF044620B1414604A802F0DDF9CB
:106AF80008B90135E8E704A802F0EBF8204609B028
:106B0800BDE8F083D8C00D002DE9F04F44684FF080
:106B1800FF354FF0030ED0F800C0944580F09E81F9
:106B280011F80C80B8F1000F00F09881B8F12C0F23
:106B380000F0168118D8B8F10D0F00F08B8106D837
:106B4800A8F10908B8F1010F40F284813DE1B8F1DC
:106B5800200F00F07F81B8F1220F40F036810CF150
:106B68000109C0F8009092E0B8F15D0F3CD007D859
:106B7800B8F13A0F00F0F080B8F15B0F07D024E1CC
:106B8800B8F17B0F03D0B8F17D0F2DD01DE1013492
:106B9800002B00F05F814768099EBE4240F27D816C
:106BA80007F1010CC0F804C04FEA071C03EB0C0AFC
:106BB8000026CAF80450CAF80C60CAF8085087685A
:106BC8007E1C1FBF03EB0719D9F80C700137C9F8F1
:106BD8000C70B8F17B0F14BF0227012703F80C7063
:106BE8000768CAF80470B7E0002B00F033814768E3
:106BF800B8F17D0F07F1805808F1FF3814BF4FF046
:106C0800020A4FF0010A07F1FF3903EB0818B9F13E
:106C1800000F19DBD8F80470013710D0D8F80870C5
:106C28007E1C0CD198F800B0D34540F029818760CC
:106C38000CF10107C8F8087003EB091C11E009F111
:106C4800FF39A8F11008E2E7B9F1FF3F40F00281EF
:106C580016E109F1FF39B9F1FF3FACF1100C00F072
:106C6800F980DCF804700137F3D0DCF808700137DC
:106C7800EFD1C0F80890EDE011F80870002F68D047
:106C8800222F09D05C2F26D0076801370760D0F87B
:106C980000804245F0D85CE0002B00F0CE804768C9
:106CA800099EBE4240F2F78007F1010C3F01C0F88F
:106CB80004C003EB070C0026CCF80850CCF80450AD
:106CC800CCF80C60D0F8008003F807E0CCF804900A
:106CD800CCF80880B1E008F10107BA42D4D90760BE
:106CE800CF5D662FD0D008D82F2FCDD001D8222F36
:106CF80007E05C2FC8D0622F03E0722FC4D002D8FF
:106D08006E2F75D1C0E7742FBED0752F70D108F1E2
:106D1800020707604FF0040AD0F80080424503D804
:106D28000768013F0760AFE711F80870002FF7D038
:106D3800A7F1300BBBF1090F04D927F02007413F19
:106D4800052F55D808F10107BAF1010A0760E3D108
:106D5800E6E7C0F800C09AE04768013F876079E03D
:106D6800002B77D087687E1C74D03F01DF5D013F20
:106D7800012F6FD9476807F1FF3803EB071CB8F1FB
:106D8800000F67DB1CF8107C013F012F0AD85CF864
:106D98000C7C013706D05CF8087C013702D1C0F8BA
:106DA800088057E008F1FF38ACF1100CE7E711F85C
:106DB800087007B3202F1ED010D8092F0AD2203F01
:106DC8005E2F15D808F101070760D0F8008042450A
:106DD800EDD810E00A2F0ED90D2F07E03A2F0AD070
:106DE80001D82C2F02E05D2F05D07D2FE7D102E0DE
:106DF800C0F800C044E013B908F1FF371CE0476849
:106E0800099EBE4247D907F101083F01C0F8048036
:106E180003EB07080026C8F80850C8F80450C8F85B
:106E28000C604FF00406D0F80090DE55C8F804C096
:106E3800C8F808900768013F076087687E1C04F15E
:106E4800010407D033B103EB071CDCF80C700137E1
:106E5800CCF80C700768013707605CE6A3B142689C
:106E6800511E03EB021300290EDB53F80C2C0132E0
:106E780003D053F8082C013209D00139103BF2E74E
:106E88006FF00100BDE8F08F2046BDE8F08F6FF08D
:106E98000200BDE8F08FC0F800C04FF0FF30BDE839
:106EA800F08FF7B54369044600F12006F3B10022DC
:106EB800026242624FF0FF328262C2690092C26887
:106EC80041683046FFF720FE431C09D1257C0DB1EF
:106ED800002033E0606900F0A7FF6561E56105E027
:106EE8000028F5DB636903EB001325E000254FF06C
:106EF800FF3725626562A76200952B46E2686168E4
:106F08003046FFF701FE0028E2DBE06113D0000104
:106F180000F082FFE26960610346009225626562C3
:106F2800A762E26861683046FFF7EEFD636903EB2C
:106F38000010A06101E06369A361012003B0F0BD06
:106F480000F0FEBC00F0FCBC00F0FABC00F0F8BC9D
:106F580070B505460C46084649B103F0DCFD2B68C0
:106F6800024621462846DB68BDE87040184770BDD8
:106F780000F0E6BC00F0E4BC00F0E2BC00F0E0BCCD
:106F880000F0DEBC00F0DCBC00F0DABC00F0D8BCDD
:106F980000F0D6BC00F0D4BC00F0D2BC00F0D0BCED
:106FA80000F0CEBC10B5044600F0B2FC206010BD65
:106FB80038B504460D46FFF7F5FF00236560A3606A
:106FC800204638BD10B5044600F0A2FC2368C01A5C
:106FD8006368984204D32046FFF7E4FF012010BD00
:106FE800002010BD10B58368044633B1FFF7EAFFEF
:106FF80018B1A368BDE81040184710BD81607047FC
:1070080000F09EBC000000000B4B10B501241C6072
:10701800084603F04BF806A3D3E9002303F0BCF8B5
:1070280003F092FB054B1860A3F204531C6010BDDB
:10703800FCA9F1D24D624040080501400405014019
:10704800014B024A1A607047000601403546526EED
:1070580000F076BC00F038BF00F05ABC00F070BCFD
:1070680070477047704700007F289ABF024B53F85B
:1070780020000020704700BF80BD0D007F289ABF08
:10708800024B53F820000020704700BF80BB0D0062
:1070980000F056BC00F054BC024B01221A7000F0FC
:1070A8004FBC00BF68E30320074AC312D15C00F05D
:1070B8001F03C0F34510D35C044A105C43EA014344
:1070C80043EA0020704700BFB8BF0D00D8BF0D00CD
:1070D800F8B590F8403004460BB1C66B03E008469B
:1070E800FFF7E2FF06461C34204600F061FB00254E
:1070F8000746A9B2B94205D23246204600F008FB3D
:107108000135F6E7F8BD2DE9F8430646081E1F4687
:10711800C0F2BE80002AC0F2BB80B6F90C308342B0
:1071280040F3B680B6F90E30934240F3B180737ED7
:10713800022B09D0032B10D0012B13D13389013B2B
:107148009B1A024618B20DE03389013B181A73895D
:10715800013B9A1A00B212B204E07389013B1B1A70
:1071680010461AB2B36B23B191B280B2984700218E
:107178007BE096F8303096F8331003F0030C0029C2
:1071880048D096F831E096F8328090FBFEF5ADB223
:1071980092FBF8F41FFA84F91EFB05F4001B18FB98
:1071A80009F4121B9C0642BF01F1FF34651BADB206
:1071B800DC0641BF96F8344004F1FF34C9EB0404FF
:1071C8001FFA84F95C065DBF4C4689B2A94696F859
:1071D800341058BF25461C0600B212B205D415FB60
:1071E80001F109EB0104A4B210E0EC0709D501355F
:1071F8006FEA090415FB01F529198CF0030C8CB210
:1072080004E015FB01F509EB0504A4B20EFB04F13B
:1072180008FB01F11CF0020F18BF96F8314080B24C
:107228001EBF04F1FF34201A80B21CF0010F18BFF2
:1072380096F8324092B21EBF04F1FF34A21A92B2FD
:107248005C075BBF154696F8314096F83240024617
:1072580058BF28461D0706D5C30704D500FB0440C0
:107268000138801A01E004FB002096F84030014400
:1072780006F11C058CB20BB1F26B03E03846FFF740
:1072880013FF024621462846BDE8F84300F040BAFD
:10729800BDE8F883F8B50E46154609B212B20446A1
:1072A8001F46FFF78BF916FB05F19DF81C303A468F
:1072B80089B204F11C0000F077F80A4B23609DF8AE
:1072C800183084F83030002384F8316084F8325064
:1072D80084F8333084F83430A36384F8403020468F
:1072E800F8BD00BF88BF0D00C90001F4FC610002B1
:1072F80041EAD20200F478401043704700F020BB06
:1073080000F0FEBA00F0F4BA10B50446C06808B13F
:1073180000F08AFD23781BB10021E07902F05EFBC2
:10732800204610BD38B50446C0680D4608B100F0C7
:107338007BFDA379062B0CBF0420032010FB05F06E
:1073480080B2A08000F068FDE06028B1A28800212A
:1073580003F083FB658038BDA080608038BD10B520
:1073680004460121C07902F039FB0021E07902F0DE
:1073780046FB0123237010BD38B5037805460C463B
:107388001BB10021C07902F029FB2B78EC7153B1B5
:10739800A4B22046012102F021FB20460021BDE8CD
:1073A800384002F02CBB38BD70B50025044616469F
:1073B800837105700572C5600561FFF7B3FF20464C
:1073C8003146FFF7D9FF204670BD0000C368002B87
:1073D80000F08B812DE9F04F8379023BDBB2042B5F
:1073E8009CBFC44A52F8234087B0054688BF322460
:1073F800FFF786FF2B69C01AA042F9D3BE4AAB88B3
:1074080007CA06AC04E90700039C1B01D4F8002551
:107418000433019322B9D4F86035002BC0F25581AA
:10742800049CD4F8003523B9D4F86035002BC0F299
:107438003C81059CD4F800351BB9D4F86035002B85
:107448006EDBAE4BEA791E68AD4CAE49E0681201BE
:10745800B31840F080705B78B75CE0600A6803F0AE
:107468001F0343EA471301273A430A600C46A888DA
:10747800D5F80C90D4F804A09F408846002844D042
:10748800CC4600224FF0A0411CF801EB08208026D2
:1074980063689B1A462BFBD9D8F80420D1F8083525
:1074A8001EEA060F43EA0703C1F808352FD06368C0
:1074B8009B1A282BFBD9D1F80C35013843EA07036E
:1074C8004FEA5606C1F80C35E2D1C9EB0C03A8887F
:1074D8009BB29842D8D84FF4307303FB00F063682E
:1074E8009B1A462BFBD9D8F80430CAEB030A82450D
:1074F800C0F0D5804FF49670FFF704FFA888D5F840
:107508000C90D4F804A00028BAD10246E7E76368D3
:107518009B1A112BCFD863689B1A112BF7D9CAE78E
:10752800D4F86435002B8CDAD4F86835002B88DA67
:10753800D4F86C35002B84DA019800F06DFC002833
:107548003FF47FAFAB88002B00F0D08000273B468C
:107558006D4E6E4900E01346EA68D25D03F1010EF4
:1075680012F0800F14BFB04688461FFA8EFE12F044
:10757800400F14BFB146894612F0200F20F813803F
:1075880018BFB24620F81E9008BF8A4603F10208C9
:1075980012F0100F03F1030E14BFB4468C461FFA05
:1075A80088F812F0080F1FFA8EFE03F104091FFA7B
:1075B80089F914BFB3468B4612F0040F20F818A0BF
:1075C80020F81EC014BFB2468A4603F1050812F01F
:1075D800020F03F1060C03F1070E20F819B01FFA89
:1075E8008EFE14BFB14689461FFA88F812F0010FC3
:1075F8001FFA8CFC14BF32460A4620F818A020F85F
:107608001C9020F81E200137B5F804E0BFB203F142
:107618000802BE4592B29ED803F109020A3392B21B
:107628009BB252005B0001994FF40046865249080C
:10763800C65200221423C4F80425304EC4F80C2581
:10764800C4F80835C4F81425C4F81025C4F8200572
:10765800C4F82415C4F82825C4F82C25EB7931681A
:107668001B01CE18C95C737803F01F0343EA41136A
:107678000121C4F86035C4F80015C4F81021A160D0
:10768800D4F81031002BFBD000234FF0FF32C4F8A0
:107698001031C4F80035C4F8602500F0C5FBFFF7C9
:1076A8002FFE286107B0BDE8F08FD4F86435002BB1
:1076B800BFF6BFAED4F86835002BBFF6BAAED4F823
:1076C8006C35002BBFF6B5AE36E7D4F86435002B21
:1076D800BFF6A6AED4F86835002BBFF6A1AED4F835
:1076E8006C35002BBFF69CAE26E7704704230222B8
:1076F80099E700BF24C00D0018C00D006CE30320FB
:10770800F0ED00E0001000E00D80FFFF0680FFFFB5
:1077180043888B42F0B545D9057AC2F30743C2F3D3
:107728000724D6B245B16B436C436E43C3F30723BA
:10773800C4F30724C6F3072690F806C0C768BCF14F
:10774800060F0CBF042503256943BCF1080F07EB9E
:10775800010524D84FF0010E0EFA0CFE1EF4D27F5C
:107768000CD11EF0400F0DD11EF0100F17D0FF2BBB
:1077780008BFFE237B546E70AC70F0BD7C546B70F8
:10778800AE70F0BD7B546C70AE70037A120E0BB9FC
:10779800D2B202E05A43C2F30722EA70F0BD7B542A
:1077A8006C70AE70F0BD42EA012242EA00407047B8
:1077B800408870474A1C037AD2B29A4270B51ED0EC
:1077C800013B13F0FF03C4680CD0FF291FBF11024F
:1077D80001F1FF3191FBF3F39BB204BF4FF6FF7148
:1077E80091FBF3F32546291B868889B28E4205D979
:1077F80029785943091205F8011BF4E7027270BD94
:107808008288C068002103F028B9000008B500F09C
:1078180097F800F095F8014B186008BD6CE3032059
:1078280070B590F8526004460D4626B901F0D9FEAD
:1078380085E8410070BD00F06BF8A26F636F9B1A7A
:107848001844A26DA36E4FF47A719B1A90FBF1F263
:10785800134401FB12002B60686070BD00F070B823
:1078680008B5024B1B685B68019308BD480203001A
:1078780008B5024B1B689B68019308BD48020300CA
:1078880008B5024B1B68DB68019308BD480203007A
:1078980008B5024B1B681B69019308BD4802030029
:1078A80008B5024B1B685B69019308BD48020300D9
:1078B80008B5024B1B681B6B019308BD4802030007
:1078C80008B5024B1B685B6C019308BD48020300B6
:1078D80008B5024B1B68DB6E019308BD4802030024
:1078E80008B5024B1B685B68019308BD18020300CA
:1078F80008B5024B1B68DB68019308BD180203003A
:1079080008B5024B1B681B69019308BD18020300E8
:1079180008B5024B1B685B69019308BD1802030098
:1079280008B5024B1B68DB69019308BD1802030008
:1079380008B5024B1B689B6D019308BD1802030034
:1079480008B5024B1B681B68019308BD2C02030095
:1079580008B5024B1B685B68019308BD2C02030045
:1079680008B5024B1B689B68019308BD2C020300F5
:1079780008B5024B1B68DB68019308BD2C020300A5
:1079880008B5024B1B681B69019308BD2C02030054
:1079980008B5024B1B685B69019308BD2C02030004
:1079A80008B5024B1B689B6A019308BD2C020300B3
:1079B80008B5024B1B681B6B019308BD2C02030022
:1079C80008B5024B1B689B6F019308BD2C0203008E
:1079D80008B5024B1B68DB68019308BD2802030049
:1079E80008B5024B1B685B69019308BD28020300B8
:1079F80008B5024B1B689B69019308BD2802030068
:107A080008B5024B1B68DB69019308BD2802030017
:107A180008B5024B1B681B6A019308BD28020300C6
:107A280008B5024B1B685B6A019308BD2802030076
:107A380008B5024B1B689B6A019308BD2802030026
:107A480008B5024B1B68DB6A019308BD28020300D6
:107A580008B5024B1B681B6B019308BD2802030085
:107A680008B5024B1B685B6B019308BD2802030035
:107A780008B5024B1B681B6C019308BD2802030064
:107A880008B5024B1B685B69019308BD6C020300D3
:107A980008B5024B1B685B69019308BD64020300CB
:107AA80008B5024B1B681B6A019308BD64020300FA
:107AB80008B5024B1B689B6A019308BD640203006A
:107AC80008B5024B1B689B68019308BD6802030058
:107AD80008B5024B1B68DB68019308BD6802030008
:107AE80008B5024B1B681B68019308BD24020300FC
:107AF80008B5024B1B689B69019308BD3802030057
:107B080008B5024B1B68DB69019308BD3802030006
:107B180008B5024B1B681B6A019308BD38020300B5
:107B280008B5024B1B689B6A019308BD3802030025
:107B380008B5024B1B681B6B019308BD3802030094
:107B480008B5024B1B689B6B019308BD3802030004
:107B580008B5024B1B68DB69019308BD30020300BE
:107B680008B5024B1B681B6A019308BD300203006D
:107B780008B5024B1B681B68019308BD3C02030053
:107B880008B5024B1B68DB68019308BD3C02030083
:107B980008B5024B1B681B69019308BD3C02030032
:107BA80008B5024B1B685B69019308BD3C020300E2
:107BB80008B5024B1B689B69019308BD3C02030092
:107BC80008B5024B1B68DB69019308BD3C02030042
:107BD80008B5024B1B681B6A019308BD3C020300F1
:107BE80008B5024B1B689B6A019308BD3C02030061
:107BF80008B5024B1B681B68019308BD4C020300C3
:107C080008B5024B1B685B68019308BD4C02030072
:107C180008B5024B1B681B69019308BD4C020300A1
:107C280008B5024B1B685B69019308BD4C02030051
:107C380008B5024B1B689B69019308BD4C02030001
:107C480008B5024B1B68DB69019308BD4C020300B1
:107C580008B5024B1B681B6A019308BD4C02030060
:107C680008B5024B1B685B6B019308BD60020300FB
:107C780008B5024B1B681B6D019308BD6002030029
:107C880008B5024B1B681B68019308BD200203005E
:107C980008B5024B1B685B68019308BD200203000E
:107CA80008B5024B1B685B69019308BD20020300FD
:107CB80008B5024B1B68DB6A019308BD200203006C
:107CC80008B5024B1B68DB6C019308BD200203005A
:107CD80008B5024B1B685B6D019308BD20020300C9
:107CE80008B5024B1B689B6D019308BD2002030079
:107CF80008B5034B1B68D3F88830019308BD000012
:107D08002002030008B5034B1B68D3F89430019395
:107D180008BD00002002030008B5024B1B689B68E1
:107D2800019308BD4402030008B5024B1B685B6958
:107D3800019308BD4402030008B5024B1B681B6A87
:107D4800019308BD4402030008B5024B1B685B6A37
:107D5800019308BD4402030008B5024B1B681B6B66
:107D6800019308BD4402030008B5024B1B68DB6B96
:107D7800019308BD4402030008B5024B1B685B6809
:107D8800019308BD4002030008B5024B1B689B68BD
:107D9800019308BD4002030008B5024B1B68DB686D
:107DA800019308BD4002030008B5024B1B681B691C
:107DB800019308BD4002030008B5024B1B685B69CC
:107DC800019308BD4002030008B5024B1B689B697C
:107DD800019308BD4002030008B5024B1B68DB692C
:107DE800019308BD4002030008B5024B1B681B6ADB
:107DF800019308BD4002030008B5024B1B681B6BCA
:107E0800019308BD4002030008B5024B1B685B6B79
:107E1800019308BD4002030008B5024B1B681B68AC
:107E2800019308BD1C02030008B5024B1B685B6880
:107E3800019308BD1C02030008B5024B1B689B6830
:107E4800019308BD1C02030008B5024B1B68DB68E0
:107E5800019308BD1C02030008B5024B1B685B694F
:107E6800019308BD1C02030008B5024B1B689B69FF
:107E7800019308BD1C02030008B5024B1B68DB69AF
:107E8800019308BD1C02030008B5024B1B685B6A1E
:107E9800019308BD1C02030008B5024B1B68DB6A8E
:107EA800019308BD1C02030008B5024B1B681B6B3D
:107EB800019308BD1C02030008B5024B1B68DB6B6D
:107EC800019308BD1C0203000021FFF7E9BE10B5AD
:107ED800836804460BB901F05CFEC3689847A36841
:107EE8001BB1032221462046984720461021BDE8B1
:107EF800104001F034BE0B68036013B15A680132B8
:107F08005A607047024800230360FFF7D9BC00BFDE
:107F180070E3032070470020704710B51021044615
:107F280001F01DFE204610BD08B508B1FFF7F5FFAA
:107F380008BD38B5C468ECB12378022B02D1E068DB
:107F4800FFF772FF656835B12846FCF722F9102162
:107F5800284601F004FEA56835B12846FCF719F952
:107F68001021284601F0FBFD20461421BDE83840C9
:107F780001F0F5BD38BD13B5044691E805000023AE
:107F88004B600B602060626001A801930093FCF7CE
:107F9800DFFC204602B010BDF7B50C4602AD54F820
:107FA800043B45F8083D06460F4601A82146FFF761
:107FB800A2FF29463046FFF7DEFF01A8FCF7C8FC00
:107FC8002046FCF7C5FC3846082101F0C8FD3046BC
:107FD80003B0F0BD13B50B46044603C88DE8030093
:107FE80093E8030084E803009DE8030083E80300A6
:107FF80002B010BD826810B50AB901F0CAFDC368A5
:10800800BDE81040184708B5006800F11001FFF7F7
:10801800F1FF08BD826810B50AB901F0BAFDC3685E
:10802800BDE81040184708B5006800F11001FFF7D7
:10803800F1FF08BD38B5002383608B6804460D4600
:108048002BB102229847EB68E360AB68A360204637
:1080580038BD00002DE9F0414FF69C7386B00468E6
:10806800B1F904208B8000230F688DF800300B6075
:108078004FF00200D4E84F1F994203D1C4E8450FDE
:10808800002DF7D102D08DF800106BE014F10C052B
:108098001EBFE76022821F460123BFF35F8F0020C7
:1080A800637004F10803BFF35F8F53E8006F43E880
:1080B8000002002AF9D1BFF35F8F002E52D0FFF7DC
:1080C800FFFD20B129463046FFF794FF43E03146D3
:1080D8006846FFF7AFFFE068B4F9105008B102F046
:1080E800FFFC04901020ADF81450FBF7D0FF0546B4
:1080F80030B34FF00008C0F808801820FBF7C7FF1E
:108108000446C0B1C0F8088001466846FFF762FF20
:10811800029BA268A360039B0292E268E360BDF839
:108128001430A3824FF69C73ADF81430049B03926D
:108138002361CDF810800E4BEB600E4B2C60AB60CA
:108148000498FFF771FE6846FCF723F800222946D9
:108158000948FFF7BDFD3046FCF71BF810213046F3
:1081680001F0FDFC3846FFF75FFE06B0BDE8F08180
:108178000F800D006D820D00D77E0D002DE9F04FA8
:108188008BB007AD4FF0000B0646994614200C2320
:108198000F4690469DF850A0C5F804B0C5F808B041
:1081A8000793FBF774FF044638B180F800B080F8F5
:1081B80001B0C0F804B0C0F808B000231020039440
:1081C8000493FBF764FF28B1012343608360234BCA
:1081D8000360C4600490224B08930820FBF757FF04
:1081E800044628B1039B40F8043B04A9FFF783FE2B
:1081F80000955FFA8AF34A46414638460994FFF7E4
:108208009BFDB8B9039B5B7803F0FF0293B94FF667
:108218009C7305A903A80592ADF81830FFF71AFF5B
:108228000598FFF701FE05A80999FFF7B5FE06A80E
:10823800FCF78EFB039B059304A906A8FFF75BFEDA
:1082480005A93046FFF797FE06A8FCF781FB04A8AE
:10825800FCF77EFB30460BB0BDE8F08F40C00D0048
:10826800D9830D00022AF8B5044606D0032A17D090
:10827800012A21D10B6803601EE018200E68FBF765
:1082880006FF054650B13146FFF7D4FE3069B6F90E
:10829800147008B102F024FC2861AF8225600BE05D
:1082A80004684CB12069FFF7BFFD2046FBF771FF5A
:1082B8001821204601F053FC0020F8BD38B50023F2
:1082C80083608B6804460D462BB102229847EB6801
:1082D800E360AB68A360204638BD022A70B5044647
:1082E80006D0032A11D0012A18D10B68036015E0C3
:1082F80014200E68FBF7CBFE054620B13146FFF788
:10830800DDFF337C2B74256008E0046834B1204617
:10831800FBF73FFF1421204601F021FC002070BD2F
:10832800F0B5002387B00C46BFF35F8F50E8006FAD
:1083380040E80032002AF9D1BFF35F8F002E3FD00A
:108348001846FFF7BDFC074620B121463046FFF727
:1083580061FE2EE0314601A8FFF7B0FF23788DF8C3
:1083680014301020FBF793FE0546D0B18760142027
:10837800FBF78DFE044678B18760014601A8FFF738
:1083880029FE039BA268A360049B0392E268E36052
:108398009DF81430049223740A4BEB600A4B2C604E
:1083A800AB6001A8FBF7F5FE002229460748FFF756
:1083B8008FFC3046FBF7EDFE1021304601F0CFFB75
:1083C80007B0F0BD2F800D00E3820D00D77E0D00B1
:1083D80030B585B004460D4668461146FFF7DCFD0A
:1083E8007CB124B228460DB102F07AFB029002A9B2
:1083F8006846ADF80C40FFF72DFE0298FFF714FD14
:108408001DE000988DF808404FF00102D0E84F3F7A
:10841800A34203D1C0E8412F0029F7D102D08DF83B
:1084280008300CE010F10C014FF0010318BF037382
:10843800BFF35F8F043000F8033CFFF771FF01A81A
:10844800FCF786FA05B030BD002211464068FFF7F8
:10845800CBBC002211464068FFF7D6BC002240681A
:10846800FFF7CABC002281F001014068FFF7B4BCE5
:1084780000231A4619464068FFF7A6BC00231A468F
:1084880019464068FFF798BC002211464068FFF77C
:108498008BBC002211464068FFF776BC00220221FF
:1084A8004068FFF779BC00231A464068FFF764BCB0
:1084B800024B03225A60024A1A60704774E3032091
:1084C8005CC00D007047F8B5064615460C468F1877
:1084D800BC4206D0336814F8011B9B6830469847A5
:1084E800F6E72846F8BD0022007CFFF791BA002184
:1084F800007CFFF795BA0021007CFFF799BA0021AC
:10850800007CFFF79DBA0021007CFFF7A1BA10B5E7
:108518001421044601F023FB204610BD10B5044683
:108528004FF47A730846A3600021044B20746160FD
:108538002360FFF79DFA204610BD00BF90C00D00D4
:1085480000231A461946007CFFF742BA13B50024E7
:10855800007C0094FFF744FAC0B202B010BD0123BA
:10856800FFF7F4BF0022007CFFF742BA0022007C2C
:10857800FFF746BA0121FFF7F9BF0021007CFFF79A
:108588006FBA704710B51821044601F0E8FA204682
:1085980010BDF0B5037D062B8DB00E4600F1040723
:1085A8004FF0000402D000F1080518E00CAD394680
:1085B80005F8304D2F232A460A20FFF769FA284686
:1085C80002F0A9FA33680246DB6829463046984724
:1085D8000FE024B12E21304600F0ACF9044415F820
:1085E800011D0A22304600F0EFF9BD420444F0D1E3
:1085F80020460DB0F0BD000010B5054B0446112211
:1086080040F8043B002102F028FA204610BD00BFC4
:10861800B8C00D000346074A10B543F8042B01F112
:10862800100251F8044B43F8044B9142F9D10A78EF
:108638001A7010BDB8C00D00037D042B01D140682D
:1086480008E0062B0AD1436853B1836843B1C36875
:1086580033B10069003018BF01207047002070470F
:108668001846704710B59DF8084044EA032343EACA
:10867800024242EA016104234160037510BD000013
:1086880037B5044D05609DF818500095FFF7EAFFCF
:1086980003B030BDB8C00D0037B50D788B784A7877
:1086A800C97800912946FFF7DDFF03B030BD00000F
:1086B800014B024A1A6070477CE3032074C10D0025
:1086C800002211464068FFF78FBB00221146406820
:1086D800FFF79ABB00224068FFF78EBB002281F0AB
:1086E80001014068FFF778BB00231A461946406825
:1086F800FFF76ABB00231A4619464068FFF75CBBC0
:10870800002211464068FFF74FBB0022114640681F
:10871800FFF73ABB002202214068FFF73DBB002368
:108728001A464068FFF728BB10B103685B68184712
:108738007047000038B50C4B03600446D0F8CC01F4
:1087480008B1FBF7A8FCD4F8C45135B12846FBF7AB
:108758003CFD0421284601F002FAA06808B1FFF7A1
:10876800E3FF204638BD00BFA8C10D0038B50D4C49
:108778000D4B23600025022304F5E4706360A560B7
:10878800C4F8C451C4F8C851FFF79AF8074BC4F8A5
:10879800CC5123602046064A0649BDE8384001F01E
:1087A800D9B900BF80E30320DCC10D00A8C10D00CA
:1087B80034DC03203D870D0000231A464068FFF78C
:1087C800DBBA002202214068FFF7E6BA0022114610
:1087D8004068FFF7D9BA002211464068FFF7E4BAAB
:1087E80000231A4619464068FFF7E6BA00231A46DE
:1087F80019464068FFF7E8BA002281F00101406895
:10880800FFF7EABA00224068FFF7F6BA00221146DD
:108818004068FFF7F9BA002211464068FFF7E4BA4A
:108828002DE9F043002495B016460D460746FFF79C
:10883800E3FE214620220CA8009402F00EF9402302
:108848000C9321466B460CAA3046FFF741F90446C3
:10885800002844D1024601216868FFF7A5FA0221E1
:10886800804622466868FFF79FFA009E81462146A7
:10887800002E34D0002932D17368022B02D00A2B83
:1088880009D02AE0B8F1000F27D0716938460431C1
:10889800FFF702FF20E0B9F1000F1ED07469112222
:1088A80001A802F0DAF806238DF8143001AD04F1BE
:1088B80008031834186859682A4603C20833A342C3
:1088C8001546F7D101A906A807ADFFF7A3FE0FCDFE
:1088D8003C1D0FC42B6823700121F669C8E7009876
:1088E800FFF7EEF8384615B0BDE8F083024B034AAF
:1088F8001A6000225A60704750E50320DCC10D0061
:10890800F8B506460D468F180024BD420CD03368D2
:1089180015F8011B9B6830469847002801DB044482
:10892800F3E7002C08BF04462046F8BD08B5FEF75B
:108938000FFB08BD03689B68184708B5FEF708FBDE
:1089480008BD38B50D210546FFF7F4FF0A21044696
:108958002846FFF7EFFF204438BD38B50546FEF737
:10896800F7FA04462846FFF7ECFF204438BD30B537
:108978008BB00B4600218DF82410012A98BF0A22DB
:108988000DF12304B3FBF2F505FB123303F0FF03EB
:10899800092B94BF30333733DBB2214604F8013951
:1089A8002B46002DEED1FEF7D3FA0BB030BD10B434
:1089B8002AB903685DF8044B9B68C9B21847D2B25C
:1089C8005DF8044BFFF7D3BFFFF7F1BF2DE9F04186
:1089D80007460E4615462AB90368C9B29B68BDE822
:1089E800F04118470A2A02D1002901DA04E0D2B27C
:1089F800BDE8F041FFF7BBBF2D21FFF79BFF2A46DB
:108A0800044671423846FFF7B2FF2044BDE8F081C2
:108A1800FFF7DCBF38B50546FFF7D8FF0446284600
:108A2800FFF78FFF204438BD2DE9F04757EC106B56
:108A380082460D4610EE102A3B4610EE100A3946C3
:108A480001F044FE08B1484912E027F000494FF010
:108A5800FF32464B3046494601F038FE68B94FF0C0
:108A6800FF32424B3046494601F012FE28B94049D0
:108A78005046FEF76DFABDE8F0874FF060423D4B77
:108A88003046394601F018FE08B13B49F0E74FF08F
:108A980060423A4B3046394601F0F0FD0028F4D1E7
:108AA800002200233046394601F0E8FD40B12D216F
:108AB8005046FFF73FFF07F1004304461F4600E01A
:108AC80004462F494FF0000800205FFA88F39D42C2
:108AD80006D900222B4B01F089FC08F10108F4E7C4
:108AE80032463B4601F0A6F90F46064601F02CFE39
:108AF8000A22014680465046FFF739FF04447DB3F9
:108B0800404601F0D3FA02460B463046394601F09A
:108B18008FF906460F4650461B49FEF719FA0444DA
:108B2800184B00223046394601F036FB0F46064600
:108B380001F0E2FD0A22014680465046FFF746FF53
:108B48000444404601F0C2FA02460B463046394614
:108B580001F06EF9013D15F0FF0506460F46DFD11D
:108B68002046BDE8F08700BF08C20D00FFFFEF7F79
:108B780012C20D00FFFFEF410CC20D00FFFFEFC155
:108B88000000E03F0000244010C20D0038B5C9B213
:108B98000546FFF749FF04462846FFF7D2FE204462
:108BA80038BD0CB42DE9F04387B000AF07F13804A5
:108BB800054654F8049B3C600E4623464A46142159
:108BC800381DFFF761F9132805D8391D2846FEF727
:108BD800BFF9044613E000F1080323F00703E84651
:108BE800ADEB030D411C23464A4668463C60FFF73F
:108BF8004BF969462846FEF7ABF90446C5461EB14F
:108C08002846FFF79EFE044420461C37BD46BDE8B3
:108C1800F04302B0704710B50446FBF7BAFA204695
:108C280010BD00000348044A04490023836000F093
:108C380091BF00BF58E5032034DC03201F8C0D00D2
:108C4800704710B51021044600F089FF204610BD7A
:108C580070B5084B0360044600250E4640F80C5FCB
:108C6800FEF726FE30462671FEF772FFA560204605
:108C780070BD00BF20C20D000079FEF771BF10B5AE
:108C88000446FEF745FEE060236820465B69984786
:108C9800002808DAFEF73CFEE368C01AA368984289
:108CA800F2D34FF0FF3010BD2DE9F04180460D465C
:108CB8008F180C46BC42A4EB050607D04046FFF7C8
:108CC800DEFF002802DB04F8010BF3E73046BDE8BD
:108CD800F08110B504460068FFF7A6F8204610BDDD
:108CE80010B50446006808B1FFF79EF8002323601A
:108CF800A360636010BD38B504460D4600680131B5
:108D0800FFF79AF810B184E82100012038BD10B5AA
:108D18000368044613B143688B4207D22046FFF725
:108D2800EAFF20B1A3680BB922681370012010BDB7
:108D380070B50E46114604461546FFF7E8FF18B908
:108D48002046FFF7CDFF09E02A463146A560206896
:108D580001F078FE2268A3680021D154204670BD36
:108D680038B50023044603604360836003730D46EF
:108D780039B1084601F0CFFE294602462046FFF7E2
:108D8800D7FF204638BD38B5054600680C4660B1A7
:108D98006A688B689A4206D3096801F099FEA3684D
:108DA800AB6000230AE0FFF73FF823682B60636895
:108DB8006B60A368AB60002323606360A36038BD69
:108DC800884210B50B46044607D0096819B19A685D
:108DD800FFF7AEFF01E0FFF783FF204610BD10B597
:108DE800002304460360436083600373FFF7E8FFD2
:108DF800204610BD884210B5044601D0FFF7C3FFD6
:108E0800204610BD38B505460C4641B1084601F06C
:108E180082FE214602462846FFF78AFF01E0FFF757
:108E28005FFF284638BD70B504460E4609B90020D4
:108E380070BD6AB18368D5182946FFF768FF002816
:108E4800F5D02068A3683146184401F041FEA560BA
:108E5800012070BD07B500238DF80410012201A977
:108E68008DF80530FFF7DFFF03B05DF804FB10B5A0
:108E78008A6809680446FFF7D6FF10B92046FFF74D
:108E88002FFF204610BD38B504460D4641B10846AF
:108E980001F041FE294602462046FFF7C4FF10B9FB
:108EA8002046FFF71DFF204638BD08B582680B46EF
:108EB80012B919B9012008BD11B90368187802E080
:108EC800006801F0FBFDB0FA80F0400908BD000021
:108ED8000EB4FFB509AC054654F8047B019423464B
:108EE8003A46052102A8FEF7CFFF0C490646284658
:108EF800FFF736FF31462846FFF709FF286830B1EB
:108F080023463A46711C0194FEF7BEFFA860284626
:108F180004B0BDE8F04003B0704700BFD8C00D00F2
:108F2800044B00204FF6FF72187058809A80FEF7A5
:108F3800AFBE00BF68E5032037B502AC036804F88C
:108F4800011DDD6B01224FF0FF332146A84703B016
:108F580030BD10B40368DC6B4FF0FF33A4465DF8F6
:108F6800044B604737B502AC036804F8011DDD6B9C
:108F7800214613460122A84703B030BD704738B5D3
:108F880043691A68002A044605DAB3F88620B3F85C
:108F980084309A4201D001250BE003681B69984789
:108FA800002814BF0125002503D123682046DB6A69
:108FB8009847284638BD43691868C043C00F7047B2
:108FC80070470020704710B51421044600F0C7FD13
:108FD800204610BDFBF75DB82DE9F04398460368BD
:108FE80093B0DB6A0C4606461746984712AB002535
:108FF80043F8485D2A4629462046FEF769FD0028C1
:109008003ADB009B002B39D05B69002B36D006A8D1
:10901800FFF7F2FA009B5C696378022B01D1211DEE
:1090280013E00A2B14D11122294601A801F015FDDD
:10903800A36833BBE36823BB4FF6FF702569FEF7CF
:109048002FFD85421DD104F1140106A8FFF724FB6A
:1090580006A8FFF7F1FA88B1336807ADD3F8209076
:10906800184B0C930FCD0DAC0FC42B6823703A46E8
:1090780043460CA93046C84704461CE04FF0FF346D
:1090880019E004F1080301AD1834186859682A4634
:1090980003C20833A3421546F7D1062301A90CA839
:1090A8000DAD8DF81430FFF7B5FA0FCD07AC0FC42E
:1090B8002B682370CCE70098FEF702FD204613B01A
:1090C800BDE8F083B8C00D007FB5164600224260A7
:1090D800029203925A1C04460D4608D04FF47A7245
:1090E800B3FBF2F1029102FB11314A43039260692A
:1090F8000823009341F205026B4440F6FF710068B3
:10910800FEF7F6FC002808DB606900233246294692
:109118000068FEF70DFD002804DAFEF7CDFE0368AF
:109128006360002004B070BD10B5036804469B68F6
:109138009847A368013BA3602BB923682046DB68E6
:10914800BDE81040184710BD70B504464D69054B81
:1091580044F8043B8C3506460FCD0FC42B682370AA
:10916800304670BDB8C00D0010B54369B3F886200D
:10917800B3F884309A42044605D06269B2F8843064
:109188001344187910BD03681B6998470028F4D167
:109198004FF0FF3010BD10B54369B3F88620B3F81F
:1091A80084309A42044608D06269B2F88430591C67
:1091B8001344A2F88410187910BD03681B699847F6
:1091C8000028F1D14FF0FF3010BD000010B5064B5C
:1091D80003600446806928B14368013B43600BB9CA
:1091E800FFF7A2FF204610BD4CC20D0010B5044683
:1091F800FFF7ECFF20461C2100F0B1FC204610BD13
:10920800F8B543691746B3F88620B3F884309A4214
:1092180005460E4606D103681B69984710B94FF0FA
:10922800FF3414E06969B1F88430B1F88640E41A73
:10923800BC4228BF3C46194422460431304601F05E
:1092480001FC6A69B2F884302344A2F884302046CD
:10925800F8BD42690023A2F884304269A2F886303A
:1092680070472DE9F041984603680D468AB0DB6ADD
:109278000646174698472B7D7469042B0CBF0220BD
:109288000A2006220121FEF75BFC206073691C6836
:10929800002C5BDB3046FFF7DCFFB8F1000F17D07E
:1092A800002303A95FFA88F00393ADF81030FEF7A6
:1092B800E7FB002849DB70690623009341F20B02A3
:1092C80003AB40F6FF710068FEF712FC00283CDB98
:1092D8001C242246002103A801F0BFFB2B7D8DF83A
:1092E8000C40042B0CD1022338468DF80D30FEF7C4
:1092F800DFFBADF80E006868FEF7D2FB049013E0C0
:109308000A2338468DF80D30FEF7D2FB05ACADF8D0
:109318000E002B1D05F1140718685968224603C270
:109328000833BB421446F7D173691C2203A9186895
:10933800FEF7EEFB002808DB2C1D0FCC76698C3677
:109348000FC623683370012404E0044633683046AE
:10935800DB6A984720460AB0BDE8F08110B543693A
:1093680004461868002801DBFEF7CAFB63694FF062
:10937800FF321A606069112200218C3001F06DFB08
:109388002046BDE81040FFF764BF000030B54269D1
:10939800B2F886308BB004461BB1B2F884209A42EA
:1093A80040D06369186800283FDBB3F886507F2DEA
:1093B8003BD8191DC5F1800208232944FEF7B0FBEC
:1093C80000280CDD6369B3F886200AB9A3F8842065
:1093D8006269B2F886301844A2F8860025E0FEF7E4
:1093E8006BFD03680B2B20D0FEF766FD03680B2B83
:1093F8001BD02023002502930395FEF75DFD03682B
:1094080001930E4B009302AA2B460D493220FEF71A
:109418002FFC63691868FEF773FB63694FF0FF322E
:109428001A6002E0FFF715FFBBE76269B2F8863001
:10943800B2F88400181A0BB030BD00BF97C20D00F7
:1094480090C20D0010B5002304460160A0F88430D6
:10945800A0F886308830FFF7CFF8204610BD00000E
:109468004FF47A7270B500238260144A4360026038
:10947800436183610446A0200E46FAF708FE0546BC
:1094880010B13146FFF7DEFF1420FAF700FE03465D
:1094980028B1012242608260094A02600561A06920
:1094A8006561A36128B14368013B43600BB9FFF7CD
:1094B8003BFE2046FFF7CDFE204670BD4CC20D0096
:1094C80030C20D0010B54FF0FF310446FFF7C8FF5A
:1094D800204610BD10B504460068002801DBFEF7E1
:1094E8000FFB204610BD10B504692046FFF7F2FFB8
:1094F80024B12046BDE81040FAF7CBBD10BD0000EE
:10950800F0B5144B144F1E68144B064418683B689A
:1095180006449E428BB01BD00AA801AD40F8286DC6
:1095280001F098F9436903F26C73436104460FCC68
:109538000FC50FCC0FC5D4F800E0C5F800E001ADA9
:109548000FCD074C0FC40FCD0FC43E60C4F800E028
:109558000BB0F0BDA0E503209CE5032098E50320AF
:1095680070E5032008B50020FEF7F6FB28B1FEF7EA
:10957800DBFB80F00100C0B208BD012008BD00007F
:1095880008B5FFF7BDFF014B986808BD70E50320DB
:1095980008B5FFF7B5FF014B586808BD70E5032013
:1095A80010B50020FEF7C4F9044668B9FEF768FB59
:1095B80001280BD12046FEF793FB38B9FFF7D2FFFD
:1095C80030B9FEF7A9FBF9E7012010BD002010BD56
:1095D800FFF7C8FF0020FEF7ABF9003018BF0120E5
:1095E80010BD08B5FFF7DCFFBDE80840FEF798B9E5
:1095F800024B1A68024B1A60704700BF7CDB0320DD
:1096080094E50320F8B585B2044628460E46174669
:1096180000F0C0F960B102212846FEF799F9022846
:1096280006D13A4631462046BDE8F840FEF758BA1A
:10963800F8BD70474174704708B5007CFEF7D0FA52
:1096480020EAE07008BD08B5007CFEF7A1FA20EA20
:10965800E07008BD08B5007CFEF7AAFA30EA2000E1
:1096680028BF4FF0FF3008BD08B5007CFEF798FA18
:1096780030EA200028BF4FF0FF3008BD007CFEF71D
:109688009FBA10B51421044600F069FA204610BDAF
:1096980070B5457C04460E4625B9007CFEF7A0FA55
:1096A800002805DD3146207CBDE87040FEF768BA29
:1096B800284670BD10B5044608461146002262606F
:1096C8004FF47A72A260054A226001222074627403
:1096D8001A46FEF74DFA204610BD00BFD8C20D004D
:1096E800007CFEF775BA000038B50C4D296811F0FA
:1096F800010411D12846FAF7DBFC68B1084A094B86
:1097080009482146FFF7D6FF2846FAF7D6FC074A4C
:109718000749054800F01EFA034838BD3CE6032017
:1097280040E60320B8E50320A4E5032034DC032049
:109738003B960D0041747047704708B50021007CC6
:10974800FEF776FA30EA200028BF4FF0FF3008BD58
:1097580008B50121007CFEF76BFA30EA200028BF2B
:109768004FF0FF3008BD08B5007CFEF759FA20EA33
:10977800E07008BD08B5007CFEF74AFA20EAE07000
:1097880008BD007CFEF764BA10B51421044600F049
:10979800E6F9204610BD38B50446007C0D46FEF7B4
:1097A8003FFA002801DC607C28B12946207CFEF7BE
:1097B80047FA20EAE07038BD10B50446002363601C
:1097C8004FF47A73A360054B236001230846217484
:1097D80063741146FEF70CFA204610BD08C30D004D
:1097E8000022007CFEF70CBA10B5142204460021B2
:1097F80001F033F9204610BD30B50E4D87B001A8F1
:10980800FFF7F2FF296811F0010410D12846FAF792
:109818004FFC60B101AA21460748FFF7CDFF284653
:10982800FAF74BFC054A0649034800F093F9024849
:1098380007B030BDC4E60320C8E6032034DC0320AB
:1098480041970D00002211464068FEF7ADBA00228C
:1098580011464068FEF7C8BA002211464068FEF774
:10986800D3BA00224068FEF7C7BA002281F001018E
:109878004068FEF7B1BA00231A4619464068FEF759
:10988800A3BA00231A4619464068FEF795BA002283
:1098980011464068FEF778BA002202214068FEF7B8
:1098A8007BBA00231A464068FEF766BA024B0422C8
:1098B8005A60024A1A607047DCE6032038C30D007C
:1098C80008B50C4B33B1FFF797FF03681B6998473E
:1098D800002809DC084B63B1FFF706FF03681B6922
:1098E8009847002803DC08BDAFF30080F2E7AFF328
:1098F800008008BD000000000000000008B5FFF768
:10990800DFFFFEF705F8014B186008BDE8E6032005
:1099180007B5002300931A466FF07701FEF7F2F9B6
:1099280003B05DF804FB000007B543880A2B08D094
:10993800502B09D1094B1B683BB103B05DF804EB10
:109948001847FFF7E5FF06E0002300931A466FF07B
:109958007701FEF7D7F903B05DF804FBE4E60320CE
:1099680010B5FDF7BDFF044601F080F8074B13B1B1
:109978002046AFF3008000210448FEF7F5F90021E6
:109988000348BDE81040FEF7B3B900BF000000006F
:1099980031990D0010B504460F48FFF76DF928B14D
:1099A800A4F10B03022B01D8002010BD00F090F8A1
:1099B800FEF7E3FD08B1012CF6D9FFF795FEFFF796
:1099C8008FFE18B1A4F10903012BEDD9232C8CBF0C
:1099D8000020012010BD00BF04E70320232838B56C
:1099E80004460D460AD8FF2908D0FFF7D3FF28B14F
:1099F80029462046BDE83840FDF7B2BF38BD38B526
:109A080004460D46FDF7B4FFFF2810D0062804D8F9
:109A18004D2323FA00F0C30709D42046FFF7BAFF05
:109A280028B129462046BDE83840FDF7A9BF38BD12
:109A380010B50446FDF79CFF0438C0B2012808D9C8
:109A48002046FFF7A7FF20B12046BDE81040FDF7EC
:109A58009FBF002010BD0D2810B504469CBF0E34D2
:109A6800A4B22046FFF796FF50B103212046FDF728
:109A78006FFF032804D12046BDE81040FDF798BFCA
:109A8800002010BD38B504460D46FFF783FFF0B13E
:109A980004212046FDF75CFF042805D1A9B2204621
:109AA800BDE83840FDF77CBF02212046FDF750FF96
:109AB80002280CD12046FDF75BFF012801D00428BD
:109AC80005D129462046BDE83840FDF779BF38BDA5
